{
  "contractName": "OperatorsAgreement",
  "abi": [
    {
      "constant": true,
      "inputs": [
        {
          "name": "",
          "type": "address"
        }
      ],
      "name": "device_index",
      "outputs": [
        {
          "name": "kwh_produced",
          "type": "uint256"
        },
        {
          "name": "kwh_consumed",
          "type": "uint256"
        }
      ],
      "payable": false,
      "stateMutability": "view",
      "type": "function"
    },
    {
      "constant": true,
      "inputs": [],
      "name": "owner",
      "outputs": [
        {
          "name": "",
          "type": "address"
        }
      ],
      "payable": false,
      "stateMutability": "view",
      "type": "function"
    },
    {
      "constant": false,
      "inputs": [
        {
          "name": "newOwner",
          "type": "address"
        }
      ],
      "name": "transferOwnership",
      "outputs": [],
      "payable": false,
      "stateMutability": "nonpayable",
      "type": "function"
    },
    {
      "constant": true,
      "inputs": [
        {
          "name": "",
          "type": "address"
        }
      ],
      "name": "asset_whitelist",
      "outputs": [
        {
          "name": "",
          "type": "bool"
        }
      ],
      "payable": false,
      "stateMutability": "view",
      "type": "function"
    },
    {
      "anonymous": false,
      "inputs": [
        {
          "indexed": false,
          "name": "_sender",
          "type": "address"
        },
        {
          "indexed": false,
          "name": "_kwh",
          "type": "uint256"
        }
      ],
      "name": "logKwhGeneration",
      "type": "event"
    },
    {
      "anonymous": false,
      "inputs": [
        {
          "indexed": false,
          "name": "_sender",
          "type": "address"
        },
        {
          "indexed": false,
          "name": "_kwh",
          "type": "uint256"
        }
      ],
      "name": "logKwhConsumption",
      "type": "event"
    },
    {
      "anonymous": false,
      "inputs": [
        {
          "indexed": false,
          "name": "_asset",
          "type": "address"
        }
      ],
      "name": "whitelistedAsset",
      "type": "event"
    },
    {
      "anonymous": false,
      "inputs": [
        {
          "indexed": true,
          "name": "previousOwner",
          "type": "address"
        },
        {
          "indexed": true,
          "name": "newOwner",
          "type": "address"
        }
      ],
      "name": "OwnershipTransferred",
      "type": "event"
    },
    {
      "constant": false,
      "inputs": [
        {
          "name": "_asset",
          "type": "address"
        }
      ],
      "name": "whitelistAsset",
      "outputs": [],
      "payable": false,
      "stateMutability": "nonpayable",
      "type": "function"
    },
    {
      "constant": false,
      "inputs": [
        {
          "name": "_kwh",
          "type": "uint256"
        }
      ],
      "name": "generateKwh",
      "outputs": [],
      "payable": false,
      "stateMutability": "nonpayable",
      "type": "function"
    },
    {
      "constant": false,
      "inputs": [
        {
          "name": "_energy_exchange",
          "type": "address"
        }
      ],
      "name": "setExchange",
      "outputs": [],
      "payable": false,
      "stateMutability": "nonpayable",
      "type": "function"
    }
  ],
  "bytecode": "0x6060604052336000806101000a81548173ffffffffffffffffffffffffffffffffffffffff021916908373ffffffffffffffffffffffffffffffffffffffff1602179055506107c0806100536000396000f300606060405260043610610083576000357c0100000000000000000000000000000000000000000000000000000000900463ffffffff1680632dafbe3c1461008857806367b1f5df146100c15780636c5189ba146100fa5780636fc628251461014e5780638da5cb5b14610171578063f2fde38b146101c6578063ff0b6738146101ff575b600080fd5b341561009357600080fd5b6100bf600480803573ffffffffffffffffffffffffffffffffffffffff16906020019091905050610250565b005b34156100cc57600080fd5b6100f8600480803573ffffffffffffffffffffffffffffffffffffffff16906020019091905050610369565b005b341561010557600080fd5b610131600480803573ffffffffffffffffffffffffffffffffffffffff16906020019091905050610408565b604051808381526020018281526020019250505060405180910390f35b341561015957600080fd5b61016f600480803590602001909190505061042c565b005b341561017c57600080fd5b6101846105e1565b604051808273ffffffffffffffffffffffffffffffffffffffff1673ffffffffffffffffffffffffffffffffffffffff16815260200191505060405180910390f35b34156101d157600080fd5b6101fd600480803573ffffffffffffffffffffffffffffffffffffffff16906020019091905050610606565b005b341561020a57600080fd5b610236600480803573ffffffffffffffffffffffffffffffffffffffff1690602001909190505061075b565b604051808215151515815260200191505060405180910390f35b6000809054906101000a900473ffffffffffffffffffffffffffffffffffffffff1673ffffffffffffffffffffffffffffffffffffffff163373ffffffffffffffffffffffffffffffffffffffff161415156102ab57600080fd5b6001600260008373ffffffffffffffffffffffffffffffffffffffff1673ffffffffffffffffffffffffffffffffffffffff16815260200190815260200160002060006101000a81548160ff0219169083151502179055507f24d67f8a8da46bcad452f4c14fda0e0078b1e7c2074e8a45d2b240a98e84c2d081604051808273ffffffffffffffffffffffffffffffffffffffff1673ffffffffffffffffffffffffffffffffffffffff16815260200191505060405180910390a150565b6000809054906101000a900473ffffffffffffffffffffffffffffffffffffffff1673ffffffffffffffffffffffffffffffffffffffff163373ffffffffffffffffffffffffffffffffffffffff161415156103c457600080fd5b80600360006101000a81548173ffffffffffffffffffffffffffffffffffffffff021916908373ffffffffffffffffffffffffffffffffffffffff16021790555050565b60016020528060005260406000206000915090508060000154908060010154905082565b600033610484600160003373ffffffffffffffffffffffffffffffffffffffff1673ffffffffffffffffffffffffffffffffffffffff168152602001908152602001600020600001548461077b90919063ffffffff16565b9150600360009054906101000a900473ffffffffffffffffffffffffffffffffffffffff1673ffffffffffffffffffffffffffffffffffffffff166349733d04836040518263ffffffff167c010000000000000000000000000000000000000000000000000000000002815260040180828152602001915050600060405180830381600087803b151561051657600080fd5b6102c65a03f1151561052757600080fd5b50505082600160003373ffffffffffffffffffffffffffffffffffffffff1673ffffffffffffffffffffffffffffffffffffffff168152602001908152602001600020600001819055507f4d19ac95bb48f1b07304a4b922d6a345ecf467916191511336de44e1118fab383384604051808373ffffffffffffffffffffffffffffffffffffffff1673ffffffffffffffffffffffffffffffffffffffff1681526020018281526020019250505060405180910390a1505050565b6000809054906101000a900473ffffffffffffffffffffffffffffffffffffffff1681565b6000809054906101000a900473ffffffffffffffffffffffffffffffffffffffff1673ffffffffffffffffffffffffffffffffffffffff163373ffffffffffffffffffffffffffffffffffffffff1614151561066157600080fd5b600073ffffffffffffffffffffffffffffffffffffffff168173ffffffffffffffffffffffffffffffffffffffff161415151561069d57600080fd5b8073ffffffffffffffffffffffffffffffffffffffff166000809054906101000a900473ffffffffffffffffffffffffffffffffffffffff1673ffffffffffffffffffffffffffffffffffffffff167f8be0079c531659141344cd1fd0a4f28419497f9722a3daafe3b4186f6b6457e060405160405180910390a3806000806101000a81548173ffffffffffffffffffffffffffffffffffffffff021916908373ffffffffffffffffffffffffffffffffffffffff16021790555050565b60026020528060005260406000206000915054906101000a900460ff1681565b600082821115151561078957fe5b8183039050929150505600a165627a7a72305820bcd59efcb6c7631c1f108c9754a11c6fb08d853769f3f799d25226f8eabb25360029",
  "source": "pragma solidity ^0.4.18;\n\nimport \"../../EthDenver/contracts/Exchange.sol\";\nimport \"../../zeppelin-solidity/contracts/ownership/Ownable.sol\";\nimport \"../../zeppelin-solidity/contracts/math/SafeMath.sol\";\n\n/// @title The interface for a metering device.\ncontract MeterInterface is Ownable {\n  \n  modifier whitelisted(address _asset) {\n    // require(asset_whitelist[_asset]); // Comment out for testing\n    _;\n  }\n  \n  /* @dev The device contains all the production information about a meter.\n   * note that kwh is the standard units of energy Kilo-Watt-Hour\n   */\n  struct Device { \n    // @dev kwh_produced is the positive transfer of energy from the\n    // device to the bus.\n    uint256 kwh_produced;\n\n    // @dev kwh_consumed is the positive transfer of energy from the bus\n    // to the device.\n    uint256 kwh_consumed;\n  }\n\n  // @dev An address mapping to the Device struct.\n  mapping (address => Device) public device_index;\n  mapping (address => bool) public asset_whitelist;\n  MicrogridExchangeInterface microgrid_exchange;\n\n  // @dev assigns the right to produce to a device.\n  function whitelistAsset(address _producer) external;\n\n  // @dev Generate event log of kilowatt-hours generated.\n  function generateKwh(uint256 _kwh) external;\n\n  // @dev Set's the target microgrid exchange contract address\n  function setExchange(address _energy_exchange) external;\n}\n\ncontract OperatorsAgreement is MeterInterface {\n  using SafeMath for uint256;\n\n  // @dev Event used to log the sender's ID and the am\n  event logKwhGeneration(address _sender, uint256 _kwh);\n  event logKwhConsumption(address _sender, uint256 _kwh);\n  event whitelistedAsset(address _asset);\n\n  // @dev assigns the right to produce to a device\n  function whitelistAsset(address _asset) external onlyOwner {\n    asset_whitelist[_asset] = true;\n    whitelistedAsset(_asset);\n  }\n\n  /** @dev Allow trusted device to log generated kwh with\n    * microgrid exchange.\n    * @param _kwh The current totalized production watt hours\n    * @return Boolean if operation completes\n    *\n    */\n  function generateKwh(uint256 _kwh) external whitelisted(msg.sender) {\n\n    // @dev kwh are a totalized counter, find the latest kwh generated.\n    // @notice the roll over must be dealt with gracefully.\n    uint256 new_kwh = _kwh.sub(device_index[msg.sender].kwh_produced);   \n\n    // @dev Call the external microgrid exchange contract  \n    microgrid_exchange.requestMint(new_kwh);\n\n    device_index[msg.sender].kwh_produced = _kwh;\n    logKwhGeneration(msg.sender, _kwh);\n  }\n  \n  function setExchange(address _energy_exchange) external onlyOwner {\n    microgrid_exchange = MicrogridExchangeInterface(_energy_exchange);\n  }\n\n}\n",
  "sourcePath": "/home/owen/dev/EthDenver/contracts/OperatorsAgreement.sol",
  "compiler": {
    "name": "solc",
    "version": "0.4.19+commit.c4cbbb05.Emscripten.clang"
  },
  "schemaVersion": "1.0.1",
  "updatedAt": "2018-02-18T05:29:55.017Z"
}